:1003EE00535749544348494E472E2E2E004B69739E
:1003FE006F626F6F6B6161686821212120736F6678
:10040E007477617265005264203120616E6420320F
:10041E0020474F2121005264203320616E64203426
:10042E0020474F2121005264203520616E64203612
:06043E0020474F212100C0
:10059B00025400010246000002480000024A00001B
:1005AB00024C0000024E00000250000002560000F8
:0405BB0002520001E7
:0E06E000E4FFFE0FBF00010EBE07F8BFD1F50C
:0106EE0022E9
:0706CF0014F91200FCF58094
:0A06D600C2A21206E0D2A20206E062
:0D05E200782A7C00FD7BFF7F10FE1200D602
:0D05EF00C2A0C2A17580801206D6D2A02243
:1004440078087C007D007BFF7A0379EE7E007F0DC7
:100454001200D61205EF7515007516007517087D84
:10046400017C00AB150517E517AA167002051612D4
:0D04740006CF0DBD00010CED64114C70E6CB
:010481002258
:08012700E553640145527042EA
:10012F00782A7C00FD7BFF7A0379FB7F191205EBA0
:10013F0075430075440075452A752800752901AB74
:10014F00430545E545AA44700205441206CF05292B
:10015F00E52970020528D39420E528648094804017
:02016F00DE228E
:08017100E555640145547039A5
:100179007A0479141205E2753A00753B00753C2A38
:10018900752800752901AB3A053CE53CAA3B70028C
:10019900053B1206CF0529E52970020528D39410DD
:0901A900E5286480948040DE2208
:0801B200E55564024554703963
:1001BA007A0479241205E2753A00753B00753C2AE7
:1001CA00752800752901AB3A053CE53CAA3B70024B
:1001DA00053B1206CF0529E52970020528D394109C
:0901EA00E5286480948040DE22C7
:0801F300E55564034554703F1B
:1001FB00782A7C00FD7BFF7A0479341205E9753A85
:10020B0000753B00753C2A752800752901AB3A0532
:10021B003CE53CAA3B7002053B1206CF0529E529BC
:0F022B0070020528D39410E5286480948040DE8B
:01023A0022A1
:040482007F017E0078
:100486007C007D14120115E4FDD3ED9FEE6480F827
:10049600EC648098501DE557640145566015E4FBF1
:1004A600FA0BBB00010ABA27F8BB11F50DBD000116
:0304B6000C80D6E1
:0104B9002220
:10054A00E555640145547006F55475550222E55582
:10055A00640245547006F55475550322E555640343
:0A056A0045547005F5547555012243
:10064A00C290D2942091081204827E007F0122E493
:03065A00FEFF227E
:10065D00C290D2942092081204827E007F0222E47E
:03066D00FEFF226B
:10067000C290D2942093081204827E007F0322E469
:03068000FEFF2258
:10068300D290C2942091081204827E007F0422E457
:03069300FEFF2245
:10069600D290C2942092081204827E007F0522E442
:0306A600FEFF2232
:1006A900D290C2942093081204827E007F0622E42D
:0306B900FEFF221F
:1005FC00C2A6D2A7C2B07F047E00120486D2A6C2C5
:0A060C00A7C2B07F017E0002048641
:10061600C2A3D2A4C2A57F047E00120486D2A3C2BE
:0A062600A4C2A57F017E0002048635
:10063000C2B4D2B5C2B67F047E00120486D2B4C260
:0A064000B5C2B67F017E00020486F9
:1005C000E555640145547003020616E5556402457D
:1005D0005470030205FCE55564034554700312068C
:0205E0003022C7
:1004BA00755400755501120127C2A3C2A4D2A57FA3
:1004CA000A7E00120486C2A3D2A4C2A57F037E00BC
:1004DA00120486D2A3C2A4C2A57F017E00020486AA
:1004EA00755400755502120127C2A6C2A7D2B07F61
:1004FA000A7E00120486C2A6D2A7C2B07F037E007B
:10050A00120486D2A6C2A7C2B07F017E0002048668
:10051A00755400755503120127C2B4C2B5D2B67F0D
:10052A000A7E00120486C2B4D2B5C2B67F037E0028
:10053A00120486D2B4C2B5C2B67F017E0002048616
:0300030002023BBB
:10023B00C0E0C0F0C083C082C0D075D000C000C089
:10024B0001C002C003C004C005C006C007C2AFC2D4
:10025B00A812064A8E468F4712065D8E488F4912AA
:10026B0006708E4A8F4B1206838E4C8F4D1206965C
:10027B008E4E8F4F1206A98E508F511204441205C9
:10028B00C0E547640145466008E54964024548708E
:10029B00051204BA8018E54B6403454A6008E54D26
:1002AB006404454C70051204EA800312051A755656
:1002BB00007557011206EFD2AFD2A8D007D006D0E7
:1002CB0005D004D003D002D001D000D0D0D082D042
:0602DB0083D0F0D0E032F8
:1006BC00D2A3C2A4C2A5D2A6C2A7C2B0D2B4C2B59C
:0306CC00C2B62291
:0B06EF00D291D292D293C290C294220A
:100574001206E0C2A0C2A1C2A27580381206D675C6
:10058400800F1206D61206D675801C1206D61206E5
:07059400D67580010206D6B6
:10036D00752600752701D2AFD2A81206BC1206EF72
:10037D00120574E52745266067E553640145527003
:10038D000F1201277F057E00120486E4F552F55306
:10039D00E5556401455470121204BA12054AE55729
:1003AD00640145567004F556F557E55564024554FC
:1003BD0070121204EA12054AE5576401455670049D
:1003CD00F556F557E5556403455470A712051A12F5
:1003DD00054AE557640145567099F556F5578093D2
:0103ED0022ED
:030000000202E118
:0C02E100787FE4F6D8FD758157020328F1
:10000600E709F608DFFA8046E709F208DFFA803EDC
:1000160088828C83E709F0A3DFFA8032E309F608C9
:10002600DFFA8078E309F208DFFA807088828C8331
:10003600E309F0A3DFFA806489828A83E0A3F608E5
:10004600DFFA805889828A83E0A3F208DFFA804CBF
:1000560080D280FA80C680D4806980F28033801096
:1000660080A680EA809A80A880DA80E280CA8033FF
:1000760089828A83ECFAE493A3C8C582C8CCC58377
:10008600CCF0A3C8C582C8CCC583CCDFE9DEE78047
:100096000D89828A83E493A3F608DFF9ECFAA9F0C6
:1000A600EDFB2289828A83ECFAE0A3C8C582C8CC1C
:1000B600C583CCF0A3C8C582C8CCC583CCDFEADE35
:1000C600E880DB89828A83E493A3F208DFF980CC97
:1000D60088F0EF60010E4E60C388F0ED2402B40490
:1000E6000050B9F582EB2402B4040050AF23234537
:0600F60082239000567306
:1000FC00BB010689828A83E0225002E722BBFE0202
:09010C00E32289828A83E4932234
:10011500EF8DF0A4A8F0CF8CF0A428CE8DF0A42EFE
:02012500FE22B8
:1002ED0002036DE493A3F8E493A34003F68001F2B7
:1002FD0008DFF48029E493A3F85407240CC8C33312
:10030D00C4540F4420C8834004F456800146F6DFE0
:10031D00E4800B010204081020408090059BE47ED0
:10032D00019360BCA3FF543F30E509541FFEE493D5
:10033D00A360010ECF54C025E060A840B8E493A39C
:10034D00FAE493A3F8E493A3C8C582C8CAC583CAC7
:10035D00F0A3C8C582C8CAC583CADFE9DEE780BE7F
:0105BF00003B
:00000001FF
